:100000000C9472000C9486000C9486000C9486006C
:100010000C9486000C9486000C9486000C94860048
:100020000C9486000C9486000C9486000C94860038
:100030000C9486000C9486000C9486000C94860028
:100040000C9486000C9486000C9486000C94860018
:100050000C9486000C9486000C9486000C94860008
:100060000C9486000C9486000C9486000C948600F8
:100070000C9486000C9486000C9486000C948600E8
:100080000C9486000C9486000C9486000C948600D8
:100090000C9486000C9486000C9486000C948600C8
:1000A0000C9486000C9486000C9486000C948600B8
:1000B0000C9486000C9486000C9486000C948800A6
:1000C0000C9486000C9486000C9486000C94860098
:1000D0000C9486000C9486000C9486000C94860088
:1000E0000C94860011241FBECFEFD1E2DEBFCDBF3E
:1000F00000E00CBF22E0A0E0B2E001C01D92A13000
:10010000B207E1F70E942F010C94FF010C9400004C
:100110001F920F920FB60F9211248F9381E080935C
:1001200000028F910F900FBE0F901F9018951092A4
:1001300020018DE0809321018CE990E090932901CA
:1001400080932801F894E3E7F0E080818260808367
:10015000789408951092C50082E38093C40086E0ED
:100160008093C20088E98093C1000895EAE7F0E037
:10017000808187608083808180628083ABE7B0E08C
:100180008C911C928C9181608C938C9180648C9367
:10019000ACE7B0E08C911C928C9180648C93808150
:1001A000806880838081806480830895EAE7F0E03E
:1001B000808187608083ACE7B0E08C9180648C9311
:1001C000808180688083808180648083089590919D
:1001D0007C00907F90937C0090917C00892B809391
:1001E0007C0080917A00806480937A0080917A000C
:1001F00086FDFCCF809178009091790008959091D0
:10020000C00095FFFCCF8093C60008958091C00088
:1002100087FFFCCF8091C6000895FC019091C0003B
:1002200097FFFCCF9091C6009193992329F09A30C3
:1002300011F09D3099F711929E2F981B892F0895E8
:10024000FC012081222351F031969091C00095FF4E
:10025000FCCF2093C60021912111F7CF0895CF93B1
:10026000DF93CDB7DEB76F970FB6F894DEBF0FBE42
:10027000CDBF1092C50082E38093C40086E08093D6
:10028000C20088E98093C100109220018DE0809324
:1002900021018CE990E09093290180932801F89442
:1002A0008091730082608093730078940E94B600FE
:1002B0008E010F5F1F4F8CE2E82EF12C9DE2D92EAC
:1002C000809100028823E1F3109200021982C12C70
:1002D00080917C00807F80937C0080917C008C29C1
:1002E00080937C0080917A00806480937A00809172
:1002F0007A0086FDFCCF80917800909179004AE0E9
:1003000050E0BE01665E7F4F0E94BF0144E050E0B6
:10031000BE01665E7F4FC8010E94AF0184E0C8162F
:1003200049F0F80101900020E9F73197F182E0826D
:10033000C394CECF9981992359F0FE0132968091D2
:10034000C00085FFFCCF9093C60091919111F7CF2B
:100350008091C00085FFFCCFD092C600B1CFFB01D9
:10036000DC010D900020E9F711974150504028F032
:10037000019000200D92C9F708951C92089545320E
:10038000510520F4423010F00C94CA01FB01108298
:10039000CB010895BB274A3031F4992322F4BDE202
:1003A000909581959F4F0C94D601BB27FB01552753
:1003B000AA27880F991FAA1FA41710F0A41B8395C2
:1003C0005051B9F7A05DAA3308F0A95DA193009739
:1003D00079F7B111B1931192CB010C94EF01DC01CB
:1003E000FC01672F71917723E1F7329704C07C916C
:1003F0006D9370836291AE17BF07C8F30895F894A8
:02040000FFCF2C
:00000001FF
